{
  "contractName": "Election",
  "abi": [
    {
      "inputs": [],
      "payable": false,
      "stateMutability": "nonpayable",
      "type": "constructor"
    },
    {
      "anonymous": false,
      "inputs": [
        {
          "indexed": true,
          "internalType": "uint256",
          "name": "_candidateId",
          "type": "uint256"
        }
      ],
      "name": "votedEvent",
      "type": "event"
    },
    {
      "constant": true,
      "inputs": [
        {
          "internalType": "uint256",
          "name": "",
          "type": "uint256"
        }
      ],
      "name": "candidates",
      "outputs": [
        {
          "internalType": "uint256",
          "name": "id",
          "type": "uint256"
        },
        {
          "internalType": "string",
          "name": "name",
          "type": "string"
        },
        {
          "internalType": "uint256",
          "name": "voteCount",
          "type": "uint256"
        }
      ],
      "payable": false,
      "stateMutability": "view",
      "type": "function"
    },
    {
      "constant": true,
      "inputs": [],
      "name": "candidatesCount",
      "outputs": [
        {
          "internalType": "uint256",
          "name": "",
          "type": "uint256"
        }
      ],
      "payable": false,
      "stateMutability": "view",
      "type": "function"
    },
    {
      "constant": true,
      "inputs": [
        {
          "internalType": "address",
          "name": "",
          "type": "address"
        }
      ],
      "name": "voters",
      "outputs": [
        {
          "internalType": "bool",
          "name": "",
          "type": "bool"
        }
      ],
      "payable": false,
      "stateMutability": "view",
      "type": "function"
    },
    {
      "constant": false,
      "inputs": [
        {
          "internalType": "uint256",
          "name": "_cid",
          "type": "uint256"
        }
      ],
      "name": "castVote",
      "outputs": [],
      "payable": false,
      "stateMutability": "nonpayable",
      "type": "function"
    }
  ],
  "bytecode": "0x608060405234801561001057600080fd5b506100556040518060400160405280600c81526020017f43616e646964617465202331000000000000000000000000000000000000000081525061009e60201b60201c565b6100996040518060400160405280600c81526020017f43616e646964617465202332000000000000000000000000000000000000000081525061009e60201b60201c565b6101be565b6002600081548092919060010191905055506040518060600160405280600254815260200182815260200160008152506000806002548152602001908152602001600020600082015181600001556020820151816001019080519060200190610108929190610119565b506040820151816002015590505050565b828054600181600116156101000203166002900490600052602060002090601f016020900481019282601f1061015a57805160ff1916838001178555610188565b82800160010185558215610188579182015b8281111561018757825182559160200191906001019061016c565b5b5090506101959190610199565b5090565b6101bb91905b808211156101b757600081600090555060010161019f565b5090565b90565b6103e9806101cd6000396000f3fe608060405234801561001057600080fd5b506004361061004c5760003560e01c80632d35a8a2146100515780633477ee2e1461006f5780633eb76b9c14610124578063a3ec138d14610152575b600080fd5b6100596101ae565b6040518082815260200191505060405180910390f35b61009b6004803603602081101561008557600080fd5b81019080803590602001909291905050506101b4565b6040518084815260200180602001838152602001828103825284818151815260200191508051906020019080838360005b838110156100e75780820151818401526020810190506100cc565b50505050905090810190601f1680156101145780820380516001836020036101000a031916815260200191505b5094505050505060405180910390f35b6101506004803603602081101561013a57600080fd5b8101908080359060200190929190505050610276565b005b6101946004803603602081101561016857600080fd5b81019080803573ffffffffffffffffffffffffffffffffffffffff169060200190929190505050610394565b604051808215151515815260200191505060405180910390f35b60025481565b6000602052806000526040600020600091509050806000015490806001018054600181600116156101000203166002900480601f0160208091040260200160405190810160405280929190818152602001828054600181600116156101000203166002900480156102665780601f1061023b57610100808354040283529160200191610266565b820191906000526020600020905b81548152906001019060200180831161024957829003601f168201915b5050505050908060020154905083565b600160003373ffffffffffffffffffffffffffffffffffffffff1673ffffffffffffffffffffffffffffffffffffffff16815260200190815260200160002060009054906101000a900460ff16156102cd57600080fd5b6000811180156102df57506002548111155b6102e857600080fd5b60018060003373ffffffffffffffffffffffffffffffffffffffff1673ffffffffffffffffffffffffffffffffffffffff16815260200190815260200160002060006101000a81548160ff02191690831515021790555060008082815260200190815260200160002060020160008154809291906001019190505550807ffff3c900d938d21d0990d786e819f29b8d05c1ef587b462b939609625b684b1660405160405180910390a250565b60016020528060005260406000206000915054906101000a900460ff168156fea265627a7a723158202986c56b71da6cc80020db41344073f6054dc3e2e01fb0b326b142aafe65b00564736f6c63430005100032",
  "source": "pragma solidity >=0.5.0;\n\ncontract Election {\n    \n    struct Candidate{\n        uint id;\n        string name;\n        uint voteCount;\n    }\n\n    // Keeping record of candidates (based on their unique IDs)\n    mapping(uint=>Candidate) public candidates;\n\n    // Keeping record of voters, i.e., storing the addresses of \n    // voters that have voted in the blockchain\n    mapping(address=>bool) public voters; \n\n    // The following event will be trigerred whenever a vote is cast\n    event votedEvent (\n        uint indexed _candidateId\n    );\n\n    // Storing candidate count\n    uint public candidatesCount;\n\n    function addCandidate(string memory _name) private{\n        candidatesCount++;\n        candidates[candidatesCount] = Candidate(candidatesCount, _name, 0);\n    }\n\n    function castVote(uint _cid) public{\n        // require that they haven't voted before\n        require(!voters[msg.sender]);\n\n        // require that the candidate is authentic\n        require(_cid>0 && _cid<=candidatesCount);\n\n        // record the vote\n        voters[msg.sender] = true;\n\n        // update the vote count\n        candidates[_cid].voteCount++;\n\n        // trigger voted event\n        emit votedEvent(_cid);\n    }\n\n    // Constructor\n    constructor() public {\n        addCandidate(\"Candidate #1\");\n        addCandidate(\"Candidate #2\");\n    }\n}",
  "sourcePath": "/home/arshpreetsingh134/Documents/Blockchain/election/contracts/Election.sol",
  "compiler": {
    "name": "solc",
    "version": "0.5.16+commit.9c3226ce.Emscripten.clang"
  },
  "schemaVersion": "3.4.1",
  "updatedAt": "2021-07-12T05:36:27.249Z",
  "networkType": "ethereum",
  "devdoc": {
    "methods": {}
  },
  "userdoc": {
    "methods": {}
  }
}